{
  "_format": "hh-sol-artifact-1",
  "contractName": "MyTokenERC20",
  "sourceName": "contracts/Erc20Contract.sol",
  "abi": [
    {
      "inputs": [],
      "stateMutability": "nonpayable",
      "type": "constructor"
    },
    {
      "anonymous": false,
      "inputs": [
        {
          "indexed": true,
          "internalType": "address",
          "name": "owner",
          "type": "address"
        },
        {
          "indexed": true,
          "internalType": "address",
          "name": "spender",
          "type": "address"
        },
        {
          "indexed": false,
          "internalType": "uint256",
          "name": "value",
          "type": "uint256"
        }
      ],
      "name": "Approval",
      "type": "event"
    },
    {
      "anonymous": false,
      "inputs": [
        {
          "indexed": true,
          "internalType": "address",
          "name": "previousOwner",
          "type": "address"
        },
        {
          "indexed": true,
          "internalType": "address",
          "name": "newOwner",
          "type": "address"
        }
      ],
      "name": "OwnershipTransferred",
      "type": "event"
    },
    {
      "anonymous": false,
      "inputs": [
        {
          "indexed": true,
          "internalType": "address",
          "name": "from",
          "type": "address"
        },
        {
          "indexed": true,
          "internalType": "address",
          "name": "to",
          "type": "address"
        },
        {
          "indexed": false,
          "internalType": "uint256",
          "name": "value",
          "type": "uint256"
        }
      ],
      "name": "Transfer",
      "type": "event"
    },
    {
      "inputs": [
        {
          "internalType": "address",
          "name": "owner",
          "type": "address"
        },
        {
          "internalType": "address",
          "name": "spender",
          "type": "address"
        }
      ],
      "name": "allowance",
      "outputs": [
        {
          "internalType": "uint256",
          "name": "",
          "type": "uint256"
        }
      ],
      "stateMutability": "view",
      "type": "function"
    },
    {
      "inputs": [
        {
          "internalType": "address",
          "name": "spender",
          "type": "address"
        },
        {
          "internalType": "uint256",
          "name": "amount",
          "type": "uint256"
        }
      ],
      "name": "approve",
      "outputs": [
        {
          "internalType": "bool",
          "name": "",
          "type": "bool"
        }
      ],
      "stateMutability": "nonpayable",
      "type": "function"
    },
    {
      "inputs": [
        {
          "internalType": "address",
          "name": "account",
          "type": "address"
        }
      ],
      "name": "balanceOf",
      "outputs": [
        {
          "internalType": "uint256",
          "name": "",
          "type": "uint256"
        }
      ],
      "stateMutability": "view",
      "type": "function"
    },
    {
      "inputs": [],
      "name": "decimals",
      "outputs": [
        {
          "internalType": "uint8",
          "name": "",
          "type": "uint8"
        }
      ],
      "stateMutability": "view",
      "type": "function"
    },
    {
      "inputs": [
        {
          "internalType": "address",
          "name": "spender",
          "type": "address"
        },
        {
          "internalType": "uint256",
          "name": "subtractedValue",
          "type": "uint256"
        }
      ],
      "name": "decreaseAllowance",
      "outputs": [
        {
          "internalType": "bool",
          "name": "",
          "type": "bool"
        }
      ],
      "stateMutability": "nonpayable",
      "type": "function"
    },
    {
      "inputs": [
        {
          "internalType": "address",
          "name": "spender",
          "type": "address"
        },
        {
          "internalType": "uint256",
          "name": "addedValue",
          "type": "uint256"
        }
      ],
      "name": "increaseAllowance",
      "outputs": [
        {
          "internalType": "bool",
          "name": "",
          "type": "bool"
        }
      ],
      "stateMutability": "nonpayable",
      "type": "function"
    },
    {
      "inputs": [],
      "name": "mint",
      "outputs": [],
      "stateMutability": "nonpayable",
      "type": "function"
    },
    {
      "inputs": [],
      "name": "name",
      "outputs": [
        {
          "internalType": "string",
          "name": "",
          "type": "string"
        }
      ],
      "stateMutability": "view",
      "type": "function"
    },
    {
      "inputs": [],
      "name": "owner",
      "outputs": [
        {
          "internalType": "address",
          "name": "",
          "type": "address"
        }
      ],
      "stateMutability": "view",
      "type": "function"
    },
    {
      "inputs": [],
      "name": "renounceOwnership",
      "outputs": [],
      "stateMutability": "nonpayable",
      "type": "function"
    },
    {
      "inputs": [],
      "name": "symbol",
      "outputs": [
        {
          "internalType": "string",
          "name": "",
          "type": "string"
        }
      ],
      "stateMutability": "view",
      "type": "function"
    },
    {
      "inputs": [],
      "name": "totalSupply",
      "outputs": [
        {
          "internalType": "uint256",
          "name": "",
          "type": "uint256"
        }
      ],
      "stateMutability": "view",
      "type": "function"
    },
    {
      "inputs": [
        {
          "internalType": "address",
          "name": "to",
          "type": "address"
        },
        {
          "internalType": "uint256",
          "name": "amount",
          "type": "uint256"
        }
      ],
      "name": "transfer",
      "outputs": [
        {
          "internalType": "bool",
          "name": "",
          "type": "bool"
        }
      ],
      "stateMutability": "nonpayable",
      "type": "function"
    },
    {
      "inputs": [
        {
          "internalType": "address",
          "name": "from",
          "type": "address"
        },
        {
          "internalType": "address",
          "name": "to",
          "type": "address"
        },
        {
          "internalType": "uint256",
          "name": "amount",
          "type": "uint256"
        }
      ],
      "name": "transferFrom",
      "outputs": [
        {
          "internalType": "bool",
          "name": "",
          "type": "bool"
        }
      ],
      "stateMutability": "nonpayable",
      "type": "function"
    },
    {
      "inputs": [
        {
          "internalType": "address",
          "name": "newOwner",
          "type": "address"
        }
      ],
      "name": "transferOwnership",
      "outputs": [],
      "stateMutability": "nonpayable",
      "type": "function"
    }
  ],
  "bytecode": "0x60806040523480156200001157600080fd5b506040518060400160405280600781526020017f4d79546f6b656e000000000000000000000000000000000000000000000000008152506040518060400160405280600381526020017f4d544b000000000000000000000000000000000000000000000000000000000081525081600390816200008f919062000412565b508060049081620000a1919062000412565b505050620000c4620000b8620000ca60201b60201c565b620000d260201b60201c565b620004f9565b600033905090565b6000600560009054906101000a900473ffffffffffffffffffffffffffffffffffffffff16905081600560006101000a81548173ffffffffffffffffffffffffffffffffffffffff021916908373ffffffffffffffffffffffffffffffffffffffff1602179055508173ffffffffffffffffffffffffffffffffffffffff168173ffffffffffffffffffffffffffffffffffffffff167f8be0079c531659141344cd1fd0a4f28419497f9722a3daafe3b4186f6b6457e060405160405180910390a35050565b600081519050919050565b7f4e487b7100000000000000000000000000000000000000000000000000000000600052604160045260246000fd5b7f4e487b7100000000000000000000000000000000000000000000000000000000600052602260045260246000fd5b600060028204905060018216806200021a57607f821691505b60208210810362000230576200022f620001d2565b5b50919050565b60008190508160005260206000209050919050565b60006020601f8301049050919050565b600082821b905092915050565b6000600883026200029a7fffffffffffffffffffffffffffffffffffffffffffffffffffffffffffffffff826200025b565b620002a686836200025b565b95508019841693508086168417925050509392505050565b6000819050919050565b6000819050919050565b6000620002f3620002ed620002e784620002be565b620002c8565b620002be565b9050919050565b6000819050919050565b6200030f83620002d2565b620003276200031e82620002fa565b84845462000268565b825550505050565b600090565b6200033e6200032f565b6200034b81848462000304565b505050565b5b8181101562000373576200036760008262000334565b60018101905062000351565b5050565b601f821115620003c2576200038c8162000236565b62000397846200024b565b81016020851015620003a7578190505b620003bf620003b6856200024b565b83018262000350565b50505b505050565b600082821c905092915050565b6000620003e760001984600802620003c7565b1980831691505092915050565b6000620004028383620003d4565b9150826002028217905092915050565b6200041d8262000198565b67ffffffffffffffff811115620004395762000438620001a3565b5b62000445825462000201565b6200045282828562000377565b600060209050601f8311600181146200048a576000841562000475578287015190505b620004818582620003f4565b865550620004f1565b601f1984166200049a8662000236565b60005b82811015620004c4578489015182556001820191506020850194506020810190506200049d565b86831015620004e45784890151620004e0601f891682620003d4565b8355505b6001600288020188555050505b505050505050565b6117dc80620005096000396000f3fe608060405234801561001057600080fd5b50600436106100f55760003560e01c806370a0823111610097578063a457c2d711610066578063a457c2d714610264578063a9059cbb14610294578063dd62ed3e146102c4578063f2fde38b146102f4576100f5565b806370a08231146101ee578063715018a61461021e5780638da5cb5b1461022857806395d89b4114610246576100f5565b806318160ddd116100d357806318160ddd1461015257806323b872dd14610170578063313ce567146101a057806339509351146101be576100f5565b806306fdde03146100fa578063095ea7b3146101185780631249c58b14610148575b600080fd5b610102610310565b60405161010f9190610f25565b60405180910390f35b610132600480360381019061012d9190610fe0565b6103a2565b60405161013f919061103b565b60405180910390f35b6101506103c5565b005b61015a6103e9565b6040516101679190611065565b60405180910390f35b61018a60048036038101906101859190611080565b6103f3565b604051610197919061103b565b60405180910390f35b6101a8610422565b6040516101b591906110ef565b60405180910390f35b6101d860048036038101906101d39190610fe0565b61042b565b6040516101e5919061103b565b60405180910390f35b6102086004803603810190610203919061110a565b610462565b6040516102159190611065565b60405180910390f35b6102266104aa565b005b6102306104be565b60405161023d9190611146565b60405180910390f35b61024e6104e8565b60405161025b9190610f25565b60405180910390f35b61027e60048036038101906102799190610fe0565b61057a565b60405161028b919061103b565b60405180910390f35b6102ae60048036038101906102a99190610fe0565b6105f1565b6040516102bb919061103b565b60405180910390f35b6102de60048036038101906102d99190611161565b610614565b6040516102eb9190611065565b60405180910390f35b61030e6004803603810190610309919061110a565b61069b565b005b60606003805461031f906111d0565b80601f016020809104026020016040519081016040528092919081815260200182805461034b906111d0565b80156103985780601f1061036d57610100808354040283529160200191610398565b820191906000526020600020905b81548152906001019060200180831161037b57829003601f168201915b5050505050905090565b6000806103ad61071e565b90506103ba818585610726565b600191505092915050565b6103cd6108ef565b6103e76103d86104be565b68056bc75e2d6310000061096d565b565b6000600254905090565b6000806103fe61071e565b905061040b858285610ac3565b610416858585610b4f565b60019150509392505050565b60006012905090565b60008061043661071e565b90506104578185856104488589610614565b6104529190611230565b610726565b600191505092915050565b60008060008373ffffffffffffffffffffffffffffffffffffffff1673ffffffffffffffffffffffffffffffffffffffff168152602001908152602001600020549050919050565b6104b26108ef565b6104bc6000610dc5565b565b6000600560009054906101000a900473ffffffffffffffffffffffffffffffffffffffff16905090565b6060600480546104f7906111d0565b80601f0160208091040260200160405190810160405280929190818152602001828054610523906111d0565b80156105705780601f1061054557610100808354040283529160200191610570565b820191906000526020600020905b81548152906001019060200180831161055357829003601f168201915b5050505050905090565b60008061058561071e565b905060006105938286610614565b9050838110156105d8576040517f08c379a00000000000000000000000000000000000000000000000000000000081526004016105cf906112d6565b60405180910390fd5b6105e58286868403610726565b60019250505092915050565b6000806105fc61071e565b9050610609818585610b4f565b600191505092915050565b6000600160008473ffffffffffffffffffffffffffffffffffffffff1673ffffffffffffffffffffffffffffffffffffffff16815260200190815260200160002060008373ffffffffffffffffffffffffffffffffffffffff1673ffffffffffffffffffffffffffffffffffffffff16815260200190815260200160002054905092915050565b6106a36108ef565b600073ffffffffffffffffffffffffffffffffffffffff168173ffffffffffffffffffffffffffffffffffffffff1603610712576040517f08c379a000000000000000000000000000000000000000000000000000000000815260040161070990611368565b60405180910390fd5b61071b81610dc5565b50565b600033905090565b600073ffffffffffffffffffffffffffffffffffffffff168373ffffffffffffffffffffffffffffffffffffffff1603610795576040517f08c379a000000000000000000000000000000000000000000000000000000000815260040161078c906113fa565b60405180910390fd5b600073ffffffffffffffffffffffffffffffffffffffff168273ffffffffffffffffffffffffffffffffffffffff1603610804576040517f08c379a00000000000000000000000000000000000000000000000000000000081526004016107fb9061148c565b60405180910390fd5b80600160008573ffffffffffffffffffffffffffffffffffffffff1673ffffffffffffffffffffffffffffffffffffffff16815260200190815260200160002060008473ffffffffffffffffffffffffffffffffffffffff1673ffffffffffffffffffffffffffffffffffffffff168152602001908152602001600020819055508173ffffffffffffffffffffffffffffffffffffffff168373ffffffffffffffffffffffffffffffffffffffff167f8c5be1e5ebec7d5bd14f71427d1e84f3dd0314c0f7b2291e5b200ac8c7c3b925836040516108e29190611065565b60405180910390a3505050565b6108f761071e565b73ffffffffffffffffffffffffffffffffffffffff166109156104be565b73ffffffffffffffffffffffffffffffffffffffff161461096b576040517f08c379a0000000000000000000000000000000000000000000000000000000008152600401610962906114f8565b60405180910390fd5b565b600073ffffffffffffffffffffffffffffffffffffffff168273ffffffffffffffffffffffffffffffffffffffff16036109dc576040517f08c379a00000000000000000000000000000000000000000000000000000000081526004016109d390611564565b60405180910390fd5b6109e860008383610e8b565b80600260008282546109fa9190611230565b92505081905550806000808473ffffffffffffffffffffffffffffffffffffffff1673ffffffffffffffffffffffffffffffffffffffff168152602001908152602001600020600082825401925050819055508173ffffffffffffffffffffffffffffffffffffffff16600073ffffffffffffffffffffffffffffffffffffffff167fddf252ad1be2c89b69c2b068fc378daa952ba7f163c4a11628f55a4df523b3ef83604051610aab9190611065565b60405180910390a3610abf60008383610e90565b5050565b6000610acf8484610614565b90507fffffffffffffffffffffffffffffffffffffffffffffffffffffffffffffffff8114610b495781811015610b3b576040517f08c379a0000000000000000000000000000000000000000000000000000000008152600401610b32906115d0565b60405180910390fd5b610b488484848403610726565b5b50505050565b600073ffffffffffffffffffffffffffffffffffffffff168373ffffffffffffffffffffffffffffffffffffffff1603610bbe576040517f08c379a0000000000000000000000000000000000000000000000000000000008152600401610bb590611662565b60405180910390fd5b600073ffffffffffffffffffffffffffffffffffffffff168273ffffffffffffffffffffffffffffffffffffffff1603610c2d576040517f08c379a0000000000000000000000000000000000000000000000000000000008152600401610c24906116f4565b60405180910390fd5b610c38838383610e8b565b60008060008573ffffffffffffffffffffffffffffffffffffffff1673ffffffffffffffffffffffffffffffffffffffff16815260200190815260200160002054905081811015610cbe576040517f08c379a0000000000000000000000000000000000000000000000000000000008152600401610cb590611786565b60405180910390fd5b8181036000808673ffffffffffffffffffffffffffffffffffffffff1673ffffffffffffffffffffffffffffffffffffffff16815260200190815260200160002081905550816000808573ffffffffffffffffffffffffffffffffffffffff1673ffffffffffffffffffffffffffffffffffffffff168152602001908152602001600020600082825401925050819055508273ffffffffffffffffffffffffffffffffffffffff168473ffffffffffffffffffffffffffffffffffffffff167fddf252ad1be2c89b69c2b068fc378daa952ba7f163c4a11628f55a4df523b3ef84604051610dac9190611065565b60405180910390a3610dbf848484610e90565b50505050565b6000600560009054906101000a900473ffffffffffffffffffffffffffffffffffffffff16905081600560006101000a81548173ffffffffffffffffffffffffffffffffffffffff021916908373ffffffffffffffffffffffffffffffffffffffff1602179055508173ffffffffffffffffffffffffffffffffffffffff168173ffffffffffffffffffffffffffffffffffffffff167f8be0079c531659141344cd1fd0a4f28419497f9722a3daafe3b4186f6b6457e060405160405180910390a35050565b505050565b505050565b600081519050919050565b600082825260208201905092915050565b60005b83811015610ecf578082015181840152602081019050610eb4565b60008484015250505050565b6000601f19601f8301169050919050565b6000610ef782610e95565b610f018185610ea0565b9350610f11818560208601610eb1565b610f1a81610edb565b840191505092915050565b60006020820190508181036000830152610f3f8184610eec565b905092915050565b600080fd5b600073ffffffffffffffffffffffffffffffffffffffff82169050919050565b6000610f7782610f4c565b9050919050565b610f8781610f6c565b8114610f9257600080fd5b50565b600081359050610fa481610f7e565b92915050565b6000819050919050565b610fbd81610faa565b8114610fc857600080fd5b50565b600081359050610fda81610fb4565b92915050565b60008060408385031215610ff757610ff6610f47565b5b600061100585828601610f95565b925050602061101685828601610fcb565b9150509250929050565b60008115159050919050565b61103581611020565b82525050565b6000602082019050611050600083018461102c565b92915050565b61105f81610faa565b82525050565b600060208201905061107a6000830184611056565b92915050565b60008060006060848603121561109957611098610f47565b5b60006110a786828701610f95565b93505060206110b886828701610f95565b92505060406110c986828701610fcb565b9150509250925092565b600060ff82169050919050565b6110e9816110d3565b82525050565b600060208201905061110460008301846110e0565b92915050565b6000602082840312156111205761111f610f47565b5b600061112e84828501610f95565b91505092915050565b61114081610f6c565b82525050565b600060208201905061115b6000830184611137565b92915050565b6000806040838503121561117857611177610f47565b5b600061118685828601610f95565b925050602061119785828601610f95565b9150509250929050565b7f4e487b7100000000000000000000000000000000000000000000000000000000600052602260045260246000fd5b600060028204905060018216806111e857607f821691505b6020821081036111fb576111fa6111a1565b5b50919050565b7f4e487b7100000000000000000000000000000000000000000000000000000000600052601160045260246000fd5b600061123b82610faa565b915061124683610faa565b925082820190508082111561125e5761125d611201565b5b92915050565b7f45524332303a2064656372656173656420616c6c6f77616e63652062656c6f7760008201527f207a65726f000000000000000000000000000000000000000000000000000000602082015250565b60006112c0602583610ea0565b91506112cb82611264565b604082019050919050565b600060208201905081810360008301526112ef816112b3565b9050919050565b7f4f776e61626c653a206e6577206f776e657220697320746865207a65726f206160008201527f6464726573730000000000000000000000000000000000000000000000000000602082015250565b6000611352602683610ea0565b915061135d826112f6565b604082019050919050565b6000602082019050818103600083015261138181611345565b9050919050565b7f45524332303a20617070726f76652066726f6d20746865207a65726f2061646460008201527f7265737300000000000000000000000000000000000000000000000000000000602082015250565b60006113e4602483610ea0565b91506113ef82611388565b604082019050919050565b60006020820190508181036000830152611413816113d7565b9050919050565b7f45524332303a20617070726f766520746f20746865207a65726f20616464726560008201527f7373000000000000000000000000000000000000000000000000000000000000602082015250565b6000611476602283610ea0565b91506114818261141a565b604082019050919050565b600060208201905081810360008301526114a581611469565b9050919050565b7f4f776e61626c653a2063616c6c6572206973206e6f7420746865206f776e6572600082015250565b60006114e2602083610ea0565b91506114ed826114ac565b602082019050919050565b60006020820190508181036000830152611511816114d5565b9050919050565b7f45524332303a206d696e7420746f20746865207a65726f206164647265737300600082015250565b600061154e601f83610ea0565b915061155982611518565b602082019050919050565b6000602082019050818103600083015261157d81611541565b9050919050565b7f45524332303a20696e73756666696369656e7420616c6c6f77616e6365000000600082015250565b60006115ba601d83610ea0565b91506115c582611584565b602082019050919050565b600060208201905081810360008301526115e9816115ad565b9050919050565b7f45524332303a207472616e736665722066726f6d20746865207a65726f20616460008201527f6472657373000000000000000000000000000000000000000000000000000000602082015250565b600061164c602583610ea0565b9150611657826115f0565b604082019050919050565b6000602082019050818103600083015261167b8161163f565b9050919050565b7f45524332303a207472616e7366657220746f20746865207a65726f206164647260008201527f6573730000000000000000000000000000000000000000000000000000000000602082015250565b60006116de602383610ea0565b91506116e982611682565b604082019050919050565b6000602082019050818103600083015261170d816116d1565b9050919050565b7f45524332303a207472616e7366657220616d6f756e742065786365656473206260008201527f616c616e63650000000000000000000000000000000000000000000000000000602082015250565b6000611770602683610ea0565b915061177b82611714565b604082019050919050565b6000602082019050818103600083015261179f81611763565b905091905056fea2646970667358221220d9b5531195dfcd9bf4f66a5b344c799c0c4d8784b901f19b40ddbee8ba140fc464736f6c63430008140033",
  "linkReferences": {},
  "deployedLinkReferences": {}
}